{
  "address": "0x691e83B1474426fF23c7A702e7a175AA1AcD702b",
  "abi": [
    {
      "inputs": [
        {
          "internalType": "uint256",
          "name": "_unlockTime",
          "type": "uint256"
        }
      ],
      "stateMutability": "payable",
      "type": "constructor"
    },
    {
      "anonymous": false,
      "inputs": [
        {
          "indexed": false,
          "internalType": "uint256",
          "name": "amount",
          "type": "uint256"
        },
        {
          "indexed": false,
          "internalType": "uint256",
          "name": "when",
          "type": "uint256"
        }
      ],
      "name": "Withdrawal",
      "type": "event"
    },
    {
      "inputs": [],
      "name": "owner",
      "outputs": [
        {
          "internalType": "address payable",
          "name": "",
          "type": "address"
        }
      ],
      "stateMutability": "view",
      "type": "function"
    },
    {
      "inputs": [],
      "name": "unlockTime",
      "outputs": [
        {
          "internalType": "uint256",
          "name": "",
          "type": "uint256"
        }
      ],
      "stateMutability": "view",
      "type": "function"
    },
    {
      "inputs": [],
      "name": "withdraw",
      "outputs": [],
      "stateMutability": "nonpayable",
      "type": "function"
    }
  ],
  "transactionHash": "0x3ea3626b929d4c631a5fe9683f0787f0c6813795caaa99c3b88681022f981476",
  "args": [
    1714823246
  ],
  "numDeployments": 1,
  "solcInputHash": "fa1622c8ed530226642767e8857658e6",
  "bytecode": "0x60806040526040516105cf3803806105cf833981810160405281019061002591906100ca565b804210610067576040517f08c379a000000000000000000000000000000000000000000000000000000000815260040161005e90610116565b60405180910390fd5b8060008190555033600160006101000a81548173ffffffffffffffffffffffffffffffffffffffff021916908373ffffffffffffffffffffffffffffffffffffffff160217905550506101b7565b6000815190506100c4816101a0565b92915050565b6000602082840312156100dc57600080fd5b60006100ea848285016100b5565b91505092915050565b6000610100602383610136565b915061010b82610151565b604082019050919050565b6000602082019050818103600083015261012f816100f3565b9050919050565b600082825260208201905092915050565b6000819050919050565b7f556e6c6f636b2074696d652073686f756c6420626520696e207468652066757460008201527f7572650000000000000000000000000000000000000000000000000000000000602082015250565b6101a981610147565b81146101b457600080fd5b50565b610409806101c66000396000f3fe608060405234801561001057600080fd5b50600436106100415760003560e01c8063251c1aa3146100465780633ccfd60b146100645780638da5cb5b1461006e575b600080fd5b61004e61008c565b60405161005b91906102f0565b60405180910390f35b61006c610092565b005b61007661020b565b6040516100839190610295565b60405180910390f35b60005481565b6000544210156100d7576040517f08c379a00000000000000000000000000000000000000000000000000000000081526004016100ce906102b0565b60405180910390fd5b600160009054906101000a900473ffffffffffffffffffffffffffffffffffffffff1673ffffffffffffffffffffffffffffffffffffffff163373ffffffffffffffffffffffffffffffffffffffff1614610167576040517f08c379a000000000000000000000000000000000000000000000000000000000815260040161015e906102d0565b60405180910390fd5b7fbf2ed60bd5b5965d685680c01195c9514e4382e28e3a5a2d2d5244bf59411b93474260405161019892919061030b565b60405180910390a1600160009054906101000a900473ffffffffffffffffffffffffffffffffffffffff1673ffffffffffffffffffffffffffffffffffffffff166108fc479081150290604051600060405180830381858888f19350505050158015610208573d6000803e3d6000fd5b50565b600160009054906101000a900473ffffffffffffffffffffffffffffffffffffffff1681565b61023a81610345565b82525050565b600061024d601683610334565b915061025882610381565b602082019050919050565b6000610270601483610334565b915061027b826103aa565b602082019050919050565b61028f81610377565b82525050565b60006020820190506102aa6000830184610231565b92915050565b600060208201905081810360008301526102c981610240565b9050919050565b600060208201905081810360008301526102e981610263565b9050919050565b60006020820190506103056000830184610286565b92915050565b60006040820190506103206000830185610286565b61032d6020830184610286565b9392505050565b600082825260208201905092915050565b600061035082610357565b9050919050565b600073ffffffffffffffffffffffffffffffffffffffff82169050919050565b6000819050919050565b7f596f752063616e27742077697468647261772079657400000000000000000000600082015250565b7f596f75206172656e277420746865206f776e657200000000000000000000000060008201525056fea2646970667358221220b1108466ff9a67bd65b0486ead67b7728d1957882e3fe2c5ed183b8b33df286264736f6c63430008020033",
  "devdoc": {
    "kind": "dev",
    "methods": {},
    "version": 1
  },
  "userdoc": {
    "kind": "user",
    "methods": {},
    "version": 1
  },
  "storageLayout": {
    "storage": [
      {
        "astId": 3,
        "contract": "src/Lock.sol:Lock",
        "label": "unlockTime",
        "offset": 0,
        "slot": "0",
        "type": "t_uint256"
      },
      {
        "astId": 5,
        "contract": "src/Lock.sol:Lock",
        "label": "owner",
        "offset": 0,
        "slot": "1",
        "type": "t_address_payable"
      }
    ],
    "types": {
      "t_address_payable": {
        "encoding": "inplace",
        "label": "address payable",
        "numberOfBytes": "20"
      },
      "t_uint256": {
        "encoding": "inplace",
        "label": "uint256",
        "numberOfBytes": "32"
      }
    }
  }
}